:100000000C949E050C94E5050C94E5050C94E5050F
:100010000C94E5050C94E5050C94E5050C94E505B8
:100020000C94E5050C94E5050C944F2A0C94212BB7
:100030000C9489210C94E5050C94E5050C94E505D8
:100040000C94E5050C94E5050C94E5050C94E50588
:100050000C94E5050C94F1210C94E5050C94E50550
:100060000C94E5050C94E5050C94E5050C94E50568
:100070000C94E5050C94E5050C94E5050C94E50558
:100080000C94E5050C94E5050C94E5050C94E50548
:100090000C94E5050C94E5050C94E5050C94E50538
:1000A0000C94E5050C94E5050C94E505F505FF05B4
:1000B000090613061C06260631064E06610674065E
:1000C0009A068706B306AD06D206B90616071107CB
:1000D000CC061B07F20668086A0875086C086E08EB
:1000E000700872087408770879087B0886087D080C
:1000F0007F08810883088508880871177117A3177E
:10010000A317E117FF175B195B1941185B19DA1880
:10011000DA184B195B195B195419E718E718E71837
:10012000E718E718E718E718E718E718E718E718D7
:10013000E718E718E718E718E718F81806190D196F
:1001400014191E19EC19EC19FE19FE19F519FE19EE
:10015000FE19FE19EC19EC19FA19FE19FE19FA1913
:100160008E2BB52BAD2CB52BAD2C012C242CAD2C0E
:100170007B2C8A2C4174726575733632202D204891
:100180006E6168204A6F6B657201280002E073039C
:10019000E0003030300070696E672000636D6401EC
:1001A000280002E37203E3007472616365727420D5
:1001B00000636D6401280002E37203E300636F6E65
:1001C00066662074012800706F77776572736865C2
:1001D0006C6C5F6973736501280002E37203E300CE
:1001E00053454C454354202A2046524F4D0002E0CF
:1001F000616303E000726567656469740128000249
:10020000E37203E3006770656469742E6D736301C4
:10021000280002E37203E300736572727669636516
:10022000732E6D736301280002E37203E3006D73A4
:1002300074736301280002E37203E300636D6401D9
:10024000280002E37203E30000F001F002F003F083
:1002500004F005F006F029001E001F002000210018
:10026000220011004C002B0014001A000800150099
:10027000170010002E003944040016000700090082
:100280000A0036002D00E1001D001B0006001900C9
:1002900005000151E600E000E300E20004510251D4
:1002A0002C003400045123002400250026002700E0
:1002B0002A003700E4001C0018000C001200130094
:1002C0003100386200000B000D000E000F003300FB
:1002D0002800E50000001050F45CF55CF65CF85C6A
:1002E000F75C0100010001000100010001000100B4
:1002F0000100010001000100FA5CF95C010001004D
:1003000001000100010001000100005D0100010089
:1003100001000100010001000100010001000100D5
:1003200001000100010001000100010001000100C5
:100330000100010001000100010001000100FC5C5E
:1003400001000100000001000100010001000100A6
:10035000010001000000105039004700B2003D00CC
:100360004B0031024C002B00FD5C000052004900A4
:100370004E005900620029000400500051004F0057
:100380004A005A00FE5CE100E16100002E004600D8
:100390004D002A006300E000E300E2002E0065004B
:1003A0002C0028005800230253005400550056002A
:1003B0002A005B00E40022025F0060006100570039
:1003C00048005800000024025C005D005E005700F9
:1003D0005800E561000029001E001F0020002100D8
:1003E00022000E004C002B0014001A00090013001C
:1003F0000A00100010502A00040015001600170013
:10040000070036001250E1001D001B000600190015
:1004100005002C00E600E000E300E2003900045192
:100420002C003400E70023002400250026002700CC
:100430002A003700E4000D000F0018001C003300F4
:100440003100386200000B00110008000C0012009F
:100450002800E500000035003A003B003C003D006C
:100460003E0022024C002B00BD00000052000000A4
:10047000A900A70007510100BE00500051004F0025
:10048000AA0026021250E100AE00AD00AB00AC00A5
:10049000A8002C002502E000E300E2000100460075
:1004A0004C05005C01003F00400041004200430059
:1004B0004400270231003602A50000002F0230025E
:1004C0004500380000003702A60046002F0030002B
:1004D0002800105000001050BF5CC05CBD5CBE5CCA
:1004E0000100010001000100C25CC35C002001208A
:1004F0000220D35C01000100C55CC75CC95C03201D
:100500000420D45C01000100C65CC85CCA5C052004
:1005100006200100010001000100010001000100AE
:1005200001000100010001000100010001000100C3
:100530000100D55C01000100CD5CCE5CCF5C010008
:100540000100010000000100D05CD15CD25C010020
:100550000100010000001050010001000100010035
:10056000010001000100010001000100B7000100CD
:100570000100FB000100010001000100B6000100C4
:100580000100F900FA000100010001000100010072
:100590000100010001000100010001000100010053
:1005A00001000100010001000100F600010001004E
:1005B0000100FC0001000100F400F000F500010062
:1005C0000100010000000100F200F100F300010051
:1005D000010001000000105012501350145016502A
:1005E000155001000100010001000100010001009F
:1005F00001000100010001000100010001000100F3
:1006000001000100010001000100010001000100E2
:1006100001000100010001000100010001000100D2
:1006200001000100010001000100010001000100C2
:1006300001000100010001000100010001000100B2
:1006400001000100000001000100010001000100A3
:1006500001000100000000000000000000002A2B43
:100660002800000000000000000000000000000062
:100670000029000000002C1E3420212224342627CB
:10068000252E362D3738271E1F20212223242526EC
:100690003333362E37381F0405060708090A0B0CBA
:1006A0000D0E0F101112131415161718191A1B1C02
:1006B0001D2F3130232D350405060708090A0B0CC0
:1006C0000D0E0F101112131415161718191A1B1CE2
:1006D0001D2F3130354C00000000000000000000EC
:1006E000000000000000000000000000000000000A
:1006F00000000000000000000000000000000000FA
:1007000000000000000000000000000000000000E9
:1007100000000000000000000000000000000000D9
:1007200000000000000000000000000000000000C9
:1007300000000000000000000000000000000000B9
:1007400000000000000000000000000000000000A9
:100750000000000000000000000000000000000099
:100760000000000000000000000000000000000089
:100770000000000000000001010101010100010171
:100780000101000000000000000000000000000067
:10079000010001000101010101010101010101014B
:1007A0000101010101010101010101010101010139
:1007B0000100000001010000000000000000000036
:1007C0000000000000000000000000000000000029
:1007D00000010101010000047F3F1F6432146432F4
:1007E00014783C1E1E140A052223252628292A2CAB
:1007F0002D2F3032333536383A3B3D3E404243456B
:1008000047494A4C4E5051535557595A5C5E6062A5
:10081000646668696B6D6F71737577797B7D7F81B5
:10082000838587898A8C8E90929496989A9C9E9FB5
:10083000A1A3A5A7A8AAACAEAFB1B3B4B6B8B9BBD3
:10084000BCBEBFC1C2C3C5C6C7C9CACBCCCDCED042
:10085000D1D2D2D3D4D5D6D7D7D8D9D9DADADBDB2F
:10086000DBDCDCDCDCDCDDDDDDDDDCDCDCDCDCDBC6
:10087000DBDBDADAD9D9D8D7D7D6D5D4D3D2D2D10F
:10088000D0CECDCCCBCAC9C7C6C5C3C2C1BFBEBC02
:10089000BBB9B8B6B4B3B1AFAEACAAA8A7A5A3A173
:1008A0009F9E9C9A98969492908E8C8A8987858335
:1008B000817F7D7B79777573716F6D6B6968666415
:1008C00062605E5C5A5957555351504E4C4A4947E5
:1008D000454342403E3D3B3A3836353332302F2D8A
:1008E0002C2A292826252322FFAA7F554000000014
:1008F00000000000000000010101010101010101EF
:1009000002020202020202020303030303030304BE
:100910000404040405050505050606060606070782
:100920000707080808080909090A0A0A0B0B0B0C33
:100930000C0C0D0D0D0E0E0E0F0F101010111112CC
:100940001213131414151516161717181819191A47
:100950001A1B1C1C1D1D1E1F1F20212122232324A6
:10096000252526272828292A2B2C2C2D2E2F3031DF
:100970003132333435363738393A3B3C3D3E3F40EF
:100980004142434445464748494B4C4D4E4F5052D7
:100990005354555758595A5C5D5E6061636465678E
:1009A000686A6B6C6E6F7172747677797A7C7D7F12
:1009B0008182848687898B8D8E9092949597999B5E
:1009C0009D9FA1A2A4A6A8AAACAEB0B2B4B6B9BB72
:1009D000BDBFC1C3C5C8CACCCED0D3D5D7DADCDE43
:1009E000E1E3E6E8EAEDEFF2F4F7F9FCFF040330A7
:1009F00000000018035000540020004100740072F1
:100A000000650075007300360032000000160348D0
:100A1000006E006100680020004A006F006B0065F6
:100A200000720000000403090409023B00020100F7
:100A3000A0FA0904000001030101000921110100CD
:100A4000012240000705810308000A090401000192
:100A50000300000009211101000122850007058221
:100A60000320000A1201100100000008EDFE606082
:100A700001000102030105010902A101850209012A
:100A8000A100050919012905150025019505750124
:100A90008102950175038101050109300931158134
:100AA000257F95027508810609381581257F9501F6
:100AB00075088106050C0A38021581257F95017598
:100AC000088106C0C005010980A101850316010047
:100AD0002603001A81002A8300751095018100C049
:100AE000050C0901A1018504160100269C021A01CA
:100AF000002A9C02751095018100C005010906A11C
:100B000001050719E029E715002501950875018100
:100B100002950175088101050819012905950575DA
:100B20000191029501750391010507190029FF152F
:100B30000026FF00950675088100C00011241FBE25
:100B4000CFEFDAE0DEBFCDBF04B603FE27C0809151
:100B50006F0290917002A0917102B0917202873081
:100B6000904BA740B04BD1F410926F0210927002DC
:100B7000109271021092720214BE84B7877F84BFF4
:100B80000FB6F894A895809160008861809360000A
:100B9000109260000FBEE0E0F8E3099511E0A0E0DC
:100BA000B1E0ECECFAE502C005900D92A835B10772
:100BB000D9F722E0A8E5B1E001C01D92AF36B20737
:100BC000E1F70E9477270C94642D0C940000462FC7
:100BD00050E04730510508F050C0DC01FA01EA5AF4
:100BE000FF4F12968C910C94092D882309F445C06F
:100BF0000E94721281E00E946F1240E03AC0882386
:100C0000E1F10E94721281E00E946F1240E061E601
:100C100031C0882391F10E94721281E00E946F120C
:100C200040E06FEF27C0882341F10E94721281E0FB
:100C30000E946F1240E008C08823F9F00E947212EF
:100C400081E00E946F124FEF6FEF09C08823A9F077
:100C50000E94721281E00E946F124FEF60E080E00C
:100C60000AC0882351F00E94721281E00E946F1224
:100C700040EF60E08FEF0C94D40E0895089508952E
:100C8000FC01E45FFC45EE30F10508F0DAC0DB0161
:100C9000E35AFF4F12969C910C94092D992309F465
:100CA000D0C082E492E00E94C9072FEF83EC99E064
:100CB000215080409040E1F700C000008CE392E0BA
:100CC000BEC0992309F4BDC086E392E00E94C90723
:100CD0002FEF83EC99E0215080409040E1F700C075
:100CE00000008EE292E0ABC0992309F4AAC088E22A
:100CF00092E00E94C9072FEF83EC99E021508040D9
:100D00009040E1F700C0000088E192E098C099238C
:100D100009F497C082E192E00E94C9072FEF83ECAB
:100D200099E0215080409040E1F700C0000085E04C
:100D300092E085C0992309F484C08FEF91E00E946E
:100D4000C9072FEF83EC99E0215080409040E1F7F4
:100D500000C0000085EF91E072C0992309F471C0D2
:100D60008EEE91E06CC0992309F46BC080EE91E0A7
:100D700066C0992309F465C08AED91E00E94C90715
:100D80002FEF83EC99E0215080409040E1F700C0C4
:100D9000000087EC91E053C0992309F452C08DEB19
:100DA00091E04DC0992309F44CC087EB91E00E947B
:100DB000C9072FEF83EC99E0215080409040E1F784
:100DC00000C0000081EB91E00E94C9072FEF89E687
:100DD00098E1215080409040E1F700C0000088EA8F
:100DE00091E02DC0992369F182EA91E00E94C90740
:100DF0002FEF83EC99E0215080409040E1F700C054
:100E000000008CE991E00E94C9072FEF89E698E184
:100E1000215080409040E1F700C0000086E991E059
:100E20000EC0992371F082E991E009C0992349F03D
:100E30008CE891E004C0992321F084E791E00E94BE
:100E4000C90781E00895089581E008950C94400653
:100E50001F93CF93DF9300D000D01F92CDB7DEB7A2
:100E600049835A836B8320918C0189819A81211156
:100E700012C0662349F00E943C1F182F682F8981F9
:100E80009A810E94E51E03C00E94101F182F6981DD
:100E90007A81812F04C00E943C1F69817A810F9062
:100EA0000F900F900F900F90DF91CF911F910C94A6
:100EB000F809FC01408151816281738184810C9425
:100EC00028071F93CF93DF9390E0FC01EA5AF94F74
:100ED0001491FC01EA5AF84FD491FC01EA52F94FFF
:100EE000C491DD2319F081EE0E949515CC2319F0F1
:100EF00086EE0E949515812F0E941B17CC2319F0B6
:100F000086EE0E94B316DD2331F081EEDF91CF91A2
:100F10001F910C94B316DF91CF911F9108950F93F9
:100F20001F93CF93DF93EC01062FFE01849188235A
:100F300059F19E012F5F3F4F813041F4E901F901E2
:100F40001491812F0E949515812F0DC0823031F4AC
:100F5000E901F90184910E9495150AC0833031F4AA
:100F6000E901F90184910E94B31602C00E94610751
:100F70002196802F8823C9F2EFE9FFE03197F1F73E
:100F800000C000008150F6CFDF91CF911F910F91EB
:100F9000089560E00C948F070E946E20811102C0BA
:100FA0000E94F2200C94700C0C94720C0C94230789
:100FB0000C94D60708950E94DA190E94DA072FEFE1
:100FC00084E39CE0215080409040E1F700C00000A5
:100FD0000C9417220F931F93CF93DF938C010E94E1
:100FE0005907EC01B8010E942607882309F4F7C1CC
:100FF000B801CE010E94FF13882309F4F0C1CA3C56
:10100000FCE5DF0741F4F8018281882309F4E7C198
:101010000E945110E4C1CB3C8CE5D80708F012C106
:10102000C33C9CE5D90761F4F8018281882309F467
:10103000D6C10E94BD1F8272E1F00E946C12CFC126
:10104000C43CECE5DE07C0F0C63C9CE5D90709F4DA
:10105000CAC008F0DCC0C43CFCE5DF0709F0CBC027
:10106000F8018281882309F4BAC10E94BD1F8272EF
:1010700021F30E945F12B3C1C531FCE5DF0708F020
:101080007BC0C2308CE5D80708F452C0F8018281D9
:10109000882309F454C00E946E20811102C00E946E
:1010A000F2200E948B2090E0909361028093600276
:1010B000FE01E350FC45E231F10530F4E559FF4F04
:1010C000809160020C94092D80916002816027C09C
:1010D000826025C0846023C0806121C080621FC0FF
:1010E00080641DC080681BC08460886018C08E7FCB
:1010F00016C08D7F14C08B7F12C08F7E10C08F7D75
:101100000EC08F7B0CC08F770AC08B7F877F07C094
:1011100087FB222720F991E0922790FB87F98093A3
:101120006002809160020E948F200E94DA1957C1EC
:10113000C1159CE5D90751F0C130DC4579F0C801F3
:10114000DF91CF911F910F910C942407F8018281B8
:10115000882309F444C10E94DB0741C1F801828160
:10116000882309F43CC180910202982F909590FB4E
:1011700080F98093020233C1C631FCE5DF0739F5FF
:101180000E94BD1F982FF80182812091100130919B
:101190001101882379F09A7A81E009F480E0809344
:1011A0005801911102C069E201C065E3C9010E94C2
:1011B00027210AC080915801811102C069E201C053
:1011C00065E3C9010E9429210E940B2008C1C23C8D
:1011D000DC4509F0B4CFF8018281882309F4FFC00F
:1011E0000E947A12FCC0F8018281882309F4F7C0BA
:1011F0000E941510F4C0C53CDC4509F0A0CFF801F1
:101200008281882309F4EBC00E940810E8C0F8012D
:101210008281C83CFCE5DF0731F4882309F4DFC094
:101220000E943310DCC0C93CDC4530F4882309F44B
:10123000D6C00E942410D3C0882309F4D0C00E94D5
:101240004210CDC0C13DECE5DE0791F4F80182818A
:10125000882309F4C4C00E94850E8F3028F00E94B4
:10126000850E843108F405CF8FE00E946F12B7C05D
:10127000C23DFCE5DF0708F05AC0CD3C8CE5D8073D
:1012800039F4F8018281882309F4A9C081E0EDCF07
:10129000CE3C9CE5D907C0F4CB3CECE5DE0741F43D
:1012A000F8018281882309F49AC00E948D0E97C0AC
:1012B000CC3CDC4509F043CFF8018281882309F456
:1012C0008EC00E949E0E8BC0F8018281CF3CFCE54F
:1012D000DF0771F4882309F482C00E94850E8630EE
:1012E00028F00E94850E883008F4C3CE86E0BDCF7A
:1012F000C03DDC4570F4882309F471C00E94850E5E
:10130000823028F00E94850E853008F4B2CE82E04B
:10131000ACCF882309F463C00E94850E893028F081
:101320000E94850E8E3008F4A4CE89E09ECFC53D84
:10133000ECE5DE0739F4F8018281882309F44FC017
:1013400083E293CFC63DFCE5DF0740F5F8018281DB
:10135000C33DFCE5DF0729F4882309F440C088E198
:1013600084CFC43DDC4568F48823C9F10E94850E12
:10137000853128F00E94850E873108F47ACE85E108
:1013800074CF882361F10E94850E893128F00E9474
:10139000850E823208F46DCE89E167CFCD3DECE554
:1013A000DE0741F4F80182818823C9F082E00E94BF
:1013B000162815C0CE3DFCE5DF0739F4F80182811F
:1013C000882369F00E94F2200AC0CC3DDC4509F078
:1013D000B6CEF8018281882311F080E0E8CF80E06A
:1013E000DF91CF911F910F91089580E090E00895D3
:1013F000E72FF0E098E0899FE00DF11D112483E0D4
:10140000EE0FFF1F8A95E1F7E60FF11DEE0FFF1FAC
:10141000EA5AFD4F859194910895880F991FFC0118
:10142000E85BFD4F859194910895CF93DF930E94DF
:10143000F8090E94D10BEC018115904508F041C0DC
:10144000C11580E4D80708F028C1C83ED10510F5C1
:10145000C03ED10508F0A1C1C83AD10578F4C53A1B
:10146000D10508F0A2C0C130D10509F496C108F435
:1014700047C1C430D10508F090C142C1CF3BD1056E
:1014800008F49EC0C03CD10508F43AC1CE01805C8E
:101490009109F5C0C11590E2D90758F4C11521E0B2
:1014A000D20708F07AC1C03FD10508F429C1D06540
:1014B00074C1C11580E3D80708F0E5C0CE019F7064
:1014C000DEC0C11595E5D90708F043C0C11524E574
:1014D000D20708F0F9C0C11582E5D80708F5C11593
:1014E00091E5D90708F0DCC0CE0174E096958795A8
:1014F0007A95E1F783709C2F937021E030E002C071
:10150000220F331F9A95E2F73C68382BCF70C695AF
:10151000C69580E2C89FE0011124C22BD32B3DC1A8
:101520009E01237033278C2F86958695C115D34550
:1015300008F0BBC0C1E0D0E002C0CC0FDD1F2A958F
:10154000E2F720E2829FC0011124C82BD92BDC686E
:1015500024C1C11529E5D207A0F4C11588E5D80733
:1015600008F0B7C0C11596E5D90708F0C9C08C2F9F
:101570000E944D0C8F71C82FD0E0DC2FCC27D06299
:101580000CC1C1152AE5D20708F4A8C0CE019056B7
:101590008115904208F0B4C08D2F8F710E944D0CC0
:1015A000DD27D0628F71D82BF8C0C53AD10509F478
:1015B000AAC0C63AD10509F0A9C0C2E8D0E4EDC07E
:1015C000C83AD10509F4A5C0C93AD10509F4A4C0A7
:1015D000CA3AD10509F4A3C0CB3AD10509F4A2C097
:1015E000CC3AD10509F4A1C0CB3BD10509F4A0C088
:1015F000CC3BD10509F49FC0CD3AD10509F49EC07A
:10160000C03BD10509F49DC0CE3AD10509F49CC078
:10161000CF3AD10509F49BC0C13BD10509F49AC06A
:10162000C23BD10509F499C0C33BD10509F498C068
:10163000C43BD10509F497C0C53BD10509F496C058
:10164000C63BD10509F495C0C73BD10509F494C048
:10165000C83BD10509F493C0C93BD10509F492C038
:10166000CD3BD10509F491C0CE3BD10509F490C022
:10167000CA3BD10509F48FC0C0E0D4E48EC00E94FB
:101680000D0AEC018AC0CE019927D3FF03C0EC01FB
:10169000D86C83C0EC01D06C80C0DF70D06A7DC094
:1016A000DC2FCC27C16FD06A78C0C1E0D0E002C087
:1016B000CC0FDD1F2A95E2F720E2829FC0011124A2
:1016C000C82BD92BDA6869C0DC2FCC27C46FD06A4D
:1016D00064C0DC2FCC27C06FD06A5FC08C2F8F70A6
:1016E0000E944D0C94E0D695C7959A95E1F7CF707E
:1016F000D0E0DC2FCC27D06A8F70806EC82B4DC015
:10170000C0E0D0E04AC0C1E8D0E447C0C3E8D0E4BC
:1017100044C0C2EED4E441C0C9EED4E43EC0CAEE37
:10172000D4E43BC0C5EBD4E438C0C6EBD4E435C048
:10173000C3EBD4E432C0C4EBD4E42FC0C7EBD4E491
:101740002CC0CCECD4E429C0CDECD4E426C0C3E852
:10175000D5E423C0CAE8D5E420C0C2E9D5E41DC061
:10176000C4E9D5E41AC0C1E2D6E417C0C3E2D6E4A6
:1017700014C0C4E2D6E411C0C5E2D6E40EC0C6E28D
:10178000D6E40BC0C7E2D6E408C0CFE6D4E405C077
:10179000C0E7D4E402C0CAE2D6E4CE01DF91CF9123
:1017A00008958238910549F1B0F48133910509F427
:1017B00059C048F48932910509F44FC08A32910525
:1017C00009F455C008958533910509F441C0893362
:1017D000910599F00895833E910531F138F4803EEA
:1017E000910591F0823E9105A9F00895863E9105FC
:1017F00001F1873E910539F108952091600220FDA5
:101800003BC021FD39C008958091600280FF34C043
:1018100089E341C08091600282FF30C08091600204
:1018200084FD2EC083EE37C08091600282FD26C009
:10183000F5CF8091600283FF25C08091600284FD16
:101840001FC087EE28C08091600283FD1BC0F5CFCA
:101850008091600285FD18C019C08091600285FDED
:1018600015C012C08091600286FD12C013C0809125
:10187000600286FD0FC00CC080EE0DC082EE0BC072
:1018800080E009C086EE07C089E205C085E303C099
:101890008AE201C081E390E008959091600292FF96
:1018A0000DC0282F2871283019F4877F846006C066
:1018B000282F2471243011F48B7F886093FF0DC092
:1018C000282F2871283119F4877E846106C0282FBB
:1018D0002471243111F48B7E886194FD877E0895F4
:1018E0000C943E060C943F06E82FF0E0E75AFE4FBA
:1018F000808108950895CF93DF93A3E2B1E04BE296
:1019000051E061E070E08D91E82FE295EF70F0E03A
:1019100021A18F70EB0102C0CC0FDD1F8A95E2F789
:10192000CE019C2F9095922391A392A1892B82A303
:101930004A175B0741F7ABE2B1E043E351E061E0F6
:1019400070E08D91E82FE295EF70F0E021A18F70AB
:10195000EB0102C0CC0FDD1F8A95E2F7CE019C2F70
:101960009095922391A392A1892B82A34A175B079A
:1019700041F7E1E6F1E0A9E5B1E089E691E01192F5
:101980001D928E179F07D9F788E00E94610DDF91A5
:10199000CF910C94CC073F924F925F926F927F92BF
:1019A0008F929F92AF92BF92CF92DF92EF92FF926F
:1019B0000F931F93CF93DF9363E271E040E050E019
:1019C000412C01E010E029E6A22E21E0B22EDB013D
:1019D0008D91BD01E82FE295EF70F0E021A18F70AD
:1019E000E80102C0CC0FDD1F8A95E2F7CE012C2B57
:1019F00021A322A13C2E3094232122A3D0EADA9500
:101A0000F1F79801042E01C0220F0A94EAF7622E22
:101A1000922E90949BE2E92E91E0F92EA1E6B1E09E
:101A2000812C6D017C90E70159907E01252D229536
:101A30002F7030E0E90128A130E0D52DDF7002C021
:101A400035952795DA95E2F720FD03C0272D262945
:101A500002C0272D29212C931196E60128817216A8
:101A600011F088248394AA16BB06D9F691A1D32D30
:101A7000D923D1A392A1892B82A348284F5F5F4F1E
:101A80004830510509F0A3CF242D48E069E571E005
:101A900081E691E00E94620D0E94D407842DDF91BF
:101AA000CF911F910F91FF90EF90DF90CF90BF905B
:101AB000AF909F908F907F906F905F904F903F90EE
:101AC00008950895FF920F931F93CF93DF938C0196
:101AD000F62ED72FC42F222349F081E080936B018B
:101AE0000E94BB2190936A018093690180916B01F0
:101AF0008823C1F08091690190916A010E94C721F9
:101B0000069780F0EF2DFD2FD8014C2F50E0CD012E
:101B1000801B910B841795071CF48D918193F7CF4F
:101B200010926B01DF91CF911F910F91FF9008955B
:101B3000CF92DF92EF92FF920F931F93CF93DF9399
:101B4000362F472F282FE82FF0E0711106C0E35100
:101B5000F74F6491762F862F7BC0072F10E056E059
:101B6000659FC0011124CFEFD0E0BE010E94E12C9F
:101B70005BEA5603C001579F900D1124830F911DFE
:101B8000830F911D982F990F980F7E01E01AF10A8B
:101B9000EE9ED001EF9EB00DFE9EB00D11248B2F56
:101BA000499FA0011124452F55277E01E41AF50A0B
:101BB000EE9EA001EF9E500DFE9E500D11246E0171
:101BC000C91AD108C09E7001C19EF00CD09EF00CC5
:101BD00011240F2D1127C01BD10BCE9F8001CF9F49
:101BE000100DDE9F100D11246230710591F048F444
:101BF00061157105E1F061307105B1F49B2FE52F9E
:101C00000AC06430710569F040F06630710579F002
:101C10000BC0912FEB2F822F0DC0922FEB2F852F12
:101C200009C0922FE12F06C0952FE22F03C09B2FF2
:101C3000E22F812FF0E0E351F74F7491E82FF0E0AD
:101C4000E351F74F6491E92FF0E0E351F74F8491AE
:101C5000DF91CF911F910F91FF90EF90DF90CF9088
:101C600008950895CF93DF93762FE901682F842F8D
:101C70000E94980D798368838A83DF91CF910895BC
:101C80004B3F08F04AEF0C94320E80911902282F36
:101C9000269530E02115310519F48170826005C068
:101CA0002532310524F08170886480931902809177
:101CB0001C028B3F18F08AEF80931C02089588E085
:101CC00090E00C94242DCF92DF92EF92FF926B0163
:101CD0007C010E94450EB701A60188E090E0FF90CC
:101CE000EF90DF90CF900C94422DE9E1F2E083E099
:101CF000808311828FEF82838AEF838314826081D5
:101D00007181828193810C94630E8091190280FF0E
:101D100002C08695089580E0089580911D02833069
:101D200018F48F5F80931D026091190270911A025E
:101D300080911B0290911C020C94630E80911D02F5
:101D4000882319F0815080931D02609119027091CF
:101D50001A0280911B0290911C020C94630E6091F8
:101D6000040170E08091190280FF0AC08091700127
:101D700023E0829FC0011124825E9D4F0C94881342
:101D800080916F0190910301891780F7E82FF0E0AF
:101D90009F01220F331FE20FF31FE25EFD4F1182FE
:101DA000108212828F5FF0CF9091190290FF16C0BF
:101DB00090916F0120910301921770F4E92FF0E0E8
:101DC000DF01AA0FBB1FEA0FFB1FE25EFD4F8183FD
:101DD000608342839F5FF0CF0C94AF0E0895CF9342
:101DE000DF9300D01F92CDB7DEB79091190290FF1C
:101DF0000AC09E012F5F3F4F0E94400E4B816981B8
:101E00008A810E94D40E0F900F900F90DF91CF9196
:101E10000895CF93DF93EC01EC81F0E0E851F84FA7
:101E20004491E9E1F2E0628181810E94EF0E8C81B0
:101E30008F5F8C83DF91CF910895CF93DF93EC0177
:101E4000E9E1F2E0438162818C810E94EF0E8C8196
:101E50008F5F8C83DF91CF9108950F931F93CF9362
:101E6000DF9300D01F92CDB7DEB78C0180916C015B
:101E700081110AC09E012F5F3F4F4AEF6FEF0E9412
:101E8000400E8A8180936C01F8018481813051F089
:101E900028F0823061F440916C010AC080916C019D
:101EA00040E007C060916C0140E080E003C040E08A
:101EB00080E060E00E94D40EF801848190E00196F9
:101EC00063E070E00E94F52C84830F900F900F90D8
:101ED000DF91CF911F910F910895AF92BF92CF9252
:101EE000DF92EF92FF920F931F93CF93DF9300D077
:101EF0001F92CDB7DEB7182FF62E042FE22E909149
:101F0000190290FF6DC0E92FE695AE2FB0E0AD5CF1
:101F1000BE4F8C91809378019E7F923061F49E0138
:101F20002F5F3F4F812F0E94400E4B8169818A8134
:101F30000E94D40E43C0823019F400911C023EC0AE
:101F4000863019F410911A0239C08930D9F38931D9
:101F5000A9F5E9518E2F8170D82EE695F0E0E85171
:101F6000F74FA590B490C12CBB2460910201C61616
:101F700018F52C2D30E0A29EC001A39E900DB29EBC
:101F8000900D112470E00E94E12C812FD11002C02D
:101F9000860F01C0861B90916F01290F311DA90189
:101FA000440F551F240F351F225E3D4F402F6F2DCC
:101FB0000E94400EC394D9CF0E94AF0E10931A0214
:101FC000F0921B0200931C02EE2051F06091190266
:101FD00070911A0280911B0290911C020E94630E64
:101FE0000F900F900F90DF91CF911F910F91FF9065
:101FF000EF90DF90CF90BF90AF900895E9E1F2E0CD
:102000009181282F4381628188E0890F0C946D0FA4
:1020100081E00C94FE0FE9E1F2E09181282F4381E9
:10202000628188EF890F0C946D0F81E00C940B1086
:10203000E9E1F2E0628128E0620F08F46FEF282FF7
:10204000438181810C946D0F81E00C941810E9E1BB
:10205000F2E0628128E0621B08F460E0282F4381EF
:1020600081810C946D0F81E00C942710E9E1F2E07E
:10207000438128E0420F08F44FEF282F62818181CD
:102080000C946D0F81E00C943610E9E1F2E043818D
:1020900028E0421B08F440E0282F628181810C94E3
:1020A0006D0F81E00C94451020E00C946D0FFF92B1
:1020B0000F931F93CF93DF93EC01F12C0FEF10E000
:1020C00060910201F616F0F480916F012F2D30E03F
:1020D000280F311DC901880F991F280F391F225E53
:1020E0003D4F70E0C8010E94F52C962F8C814091E5
:1020F0001C0260911B02F99E800D11240E94400E6B
:10210000F394DECF0E94AF0E9A818C8190FF02C0C3
:102110008F5F01C081508C83DF91CF911F910F9110
:10212000FF900895BF92CF92DF92EF92FF920F93AC
:102130001F93CF93DF93FC01828180FF02C00FEFDA
:1021400001C001E010E0809102011817E0F58091D4
:102150006F01C12ED12CE601C80FD11DCE01880F11
:10216000991FC80FD91FC25EDD4F198218821A82CB
:1021700034E0E32EF12CB12C80916E018B0D87FFA2
:1021800003C090910201890F082E000C990BC8160C
:10219000D90691F480911C028E9DA0018F9D500D57
:1021A000112455954795559547959E0160911B02C1
:1021B00080911A020E94400EB00EF1E0EF1AF10871
:1021C000D9F61F5FC0CF0E94AF0E80916E01013023
:1021D00031F4811102C080910201815007C090E06A
:1021E00001966091020170E00E94F52C80936E01CF
:1021F000DF91CF911F910F91FF90EF90DF90CF90E3
:10220000BF900895CF9380916F019091030189173A
:1022100070F4E82FF0E09F01220F331FE20FF31F4D
:10222000E25EFD4F1182108212828F5FF0CFC0E01C
:1022300060910201C617C0F5EC2FF0E070E0CF010D
:102240000E94F52C20916F01820F20916D01022ECA
:10225000000C330B90E0E217F307CCF02091010162
:10226000022E000C330B2E173F078CF09C01220F1F
:10227000331F820F931F9C01225E3D4F40911C0231
:1022800060911B0280911A020E94400E0BC0FC015B
:10229000EE0FFF1F8E0F9F1FFC01E25EFD4F1182AC
:1022A00010821282CF5FC4CF0E94AF0E2091000136
:1022B00080916D01820F80936D0190910101920FC9
:1022C0009093010119165CF4082E000C990B4091B3
:1022D000020150E041505109841795071CF02195E7
:1022E00020930001CF9108950F931F93CF93DF9315
:1022F0008C01FC01848195810196817099279583D9
:102300008483C0E0D5E580910201C81700F5809173
:102310006F012C2F30E0280F311DC901880F991F44
:10232000280F391F225E3D4F4C2F4695F8018481BE
:102330009581840F911D817040911C0260911B0258
:102340008D9F802D11240E94400ECF5FDCCFDF9146
:10235000CF911F910F910C94AF0E0F931F93CF93BA
:10236000DF93EC0100E010E080910201282F30E0C3
:102370000217130724F590916F019801290F311D61
:10238000A901440F551F240F351F225E3D4F86952E
:1023900090E04C81081719071CF4442331F002C067
:1023A000411103C040911C0201C040E060911B023A
:1023B00080911A020E94400E0F5F1F4FD5CF0E94DE
:1023C000AF0E8C8190E00196817099278C83DF910C
:1023D000CF911F910F910895E9E1F2E080818E7F06
:1023E000808360817181828193810E94630E10924B
:1023F00079012FEF80E792E0215080409040E1F793
:1024000000C000000C94AF0E60911902669570E058
:102410004BE050E085E091E00E940F2D892B19F4EC
:1024200081E0809379010E94BB2190937201809397
:10243000710108959091190290FF35C0917081113A
:1024400002C0926006C0853210F0986402C0880F06
:10245000982B90931902662351F0609119027091A4
:102460001A0280911B0290911C020E94630E6091DF
:102470001902669570E04BE050E085E091E00E9423
:102480000F2D892B19F01092790102C00E940412BD
:1024900081E08093740140911C0260911B02809145
:1024A0001A020C9454100895682F90911902969571
:1024B00081E0890F853208F081E00C941A1281E0E6
:1024C0000C945412682F9091190296958FEF890FF2
:1024D00009F484E20C941A1281E00C94621261E017
:1024E0000C941A12E9E1F2E0808181608083869584
:1024F0000C946F128091190280FD0C94EC110C94D5
:10250000721260E00C941A1280917701811133C02D
:10251000809102028160809302020E946E208111EC
:1025200004C00E94F2200E94750E0E945F0E60930C
:10253000190270931A0280931B0290931C026E7F03
:1025400061F40E94750E0E945F0E609319027093F1
:102550001A0280931B0290931C020E94450E109257
:1025600079018091190280FF03C086950E94811233
:1025700081E08093770108950F931F93CF93DF93AA
:1025800080917901882309F48CC080917801E091D1
:102590001902E695E81BE0937301823049F4F0E0FC
:1025A000EC51F84FE491CE2FD0E009E01FE049C094
:1025B000863049F4F0E0EF51F84FE491CE2FD0E0AF
:1025C0000DE11FE03EC0893051F4E695F0E0E252A3
:1025D000F84FE491CE2FD0E007E510E132C08F3004
:1025E00051F4E695F0E0E552F84FE491CE2FD0E0BB
:1025F00002E910E126C0853149F4F0E0E852F84FD5
:10260000E491CE2FD0E002E011E11BC0883181F0CF
:10261000833239F4E6EDF7E0C591D4910DE21FE085
:1026200010C0843251F4C4EFD1E00DEA11E109C0C9
:10263000C8EED3E004E711E104C0C0EDD7E001E348
:102640001EE080917401882389F0109274010E9429
:10265000BB219E0120953095820F931F90937201AC
:102660008093710110927601109275018091710131
:10267000909172010E94C7218C179D0790F0E09104
:102680007101F0917201CE0FDF1FD0937201C093E0
:10269000710181E791E0F801DF91CF911F910F91D6
:1026A0000994DF91CF911F910F91089528B1342F94
:1026B0003095232338B1432B3FB7F894FC01680FC2
:1026C000791FE617F70789F0819198E048B9000073
:1026D00000C087FF28B9880F000000C000C000C0FC
:1026E00028B900C09A9591F7ECCF3FBF089527B164
:1026F000242B27B99B01220F331F620F731F0E94E7
:10270000561387EC90E00197F1F700C000000895A0
:1027100040E40C9477130F931F93CF93DF93C62F4E
:10272000D42F122FFC0182818823C9F060937C0191
:102730000E94BB2190937B0180937A0180E28C0FF1
:10274000883008F057C0C77081E001C0880FCA9573
:10275000EAF7DF91CF911F910F910C942E17809182
:102760007C01681330C080917A0190917B010E94B6
:10277000C721883C910538F500E20D0FCD17B9F05F
:1027800080E28C0F883040F4C77081E001C0880F70
:10279000CA95EAF70E943517083028F581E09D2F89
:1027A000977001C0880F9A95EAF70E942E17812F23
:1027B0000E941B170830F0F4D77081E001C0880F29
:1027C000DA95EAF70AC080E28C0F883098F4C77077
:1027D00081E001C0880FCA95EAF7DF91CF911F9180
:1027E0000F910C943517812FDF91CF911F910F918D
:1027F0000C941B17DF91CF911F910F9108959C01AD
:10280000CB01203F4CE53407F9F078F4283DFCE596
:102810003F07B9F0293D4CE5340711F1273D3C4510
:1028200031F526E241EE61EE1EC0223FFCE53F0796
:1028300099F070F0233F3C45D1F427E245EE66EE77
:1028400012C027E245EE0EC026E241EE60EE0BC05C
:1028500027E245EE64EE07C026E241EE62EE03C0D9
:1028600028E241E065EE0E948B1380E00895FC01B0
:102870008281882319F010927C01089581E00895E7
:1028800090938201809381010895E0918101F091FC
:102890008201309721F00190F081E02D099480E0D1
:1028A0000895E0918101F0918201309721F002803A
:1028B000F381E02D09940895E0918101F091820166
:1028C000309739F022E0DC012C930480F581E02D73
:1028D0000994089520917F013091800128173907CC
:1028E00071F09093800180937F01E0918101F091DC
:1028F0008201309721F00680F781E02D0994089538
:1029000020917D0130917E012817390771F0909355
:102910007E0180937D01E0918101F09182013097E9
:1029200021F00084F185E02D0994089585B7806831
:1029300085BF85B7806885BF089508950C949D1460
:102940000C949E140C949D140C949D140E94961447
:102950000E94A2140C94A01481E008950E94B22158
:102960000E947B0C0E947F220E9484120C94A4146B
:10297000BF92CF92DF92EF92FF920F931F93CF936C
:10298000DF93CDB7DEB72A970FB6F894DEBF0FBE40
:10299000CDBF0E94CB0C0E94AC14811111C08FEFEF
:1029A00089838A831B820E94BB218160782F9D834B
:1029B0008C8349815A816B818D810E94611554C03D
:1029C00084E8C82E81E0D82E00E010E0B02E802FE1
:1029D0000E94740CE82EF60121916F01F82EF22668
:1029E00031F40F5F1F4F0830110581F7D8CF809168
:1029F000020281FD0E947A0C80E090E02F2D30E0F1
:102A0000482FB901082E02C0759567950A94E2F720
:102A100060FF25C08E83BF8281E090E06C0102C020
:102A2000CC0CDD1C4A95E2F72E2D30E02C213D2107
:102A3000232B09F480E088870E94BB218160782FD6
:102A40009A8789874E815F8168858A850E94611592
:102A5000F801EC57FE4F80818C25808305C00196DC
:102A60008830910569F6BDCF0E9422250E94451449
:102A7000909183018917A9F00E94451480938301E6
:102A80002A960FB6F894DEBF0FBECDBFDF91CF916F
:102A90001F910F91FF90EF90DF90CF90BF900C941B
:102AA000D8072A960FB6F894DEBF0FBECDBFDF91D0
:102AB000CF911F910F91FF90EF90DF90CF90BF903B
:102AC0000895CF93DF93CDB7DEB72B970FB6F89469
:102AD000DEBF0FBECDBF4F83588769877A878B874C
:102AE000DE01119686E0FD0111928A95E9F785E0F5
:102AF000FE01379601900D928A95E1F749815A813E
:102B00006B817C818D819E810E94AA1C2B960FB6C1
:102B1000F894DEBF0FBECDBFDF91CF910895FC01C9
:102B2000808191810E947E1F0895882309F41AC133
:102B30008238C1F40E94451481FD14C169E380917B
:102B40001001909111010E9427210E940B202FEF6C
:102B500081EE94E0215080409040E1F700C00000F9
:102B600069E319C08338F9F40E94451480FDFAC066
:102B700063E580911001909111010E9427210E942C
:102B80000B202FEF81EE94E0215080409040E1F740
:102B900000C0000063E580911001909111010E9436
:102BA00029210C940B208438C1F40E94451482FD25
:102BB000D9C067E480911001909111010E942721F2
:102BC0000E940B202FEF81EE94E021508040904036
:102BD000E1F700C0000067E4DECF9CEF980F913A68
:102BE00040F4682F80911001909111010E942721DB
:102BF000D8CF90E2980F983050F4877091E001C0E0
:102C0000990F8A95EAF7892F0E94C01FCACF9BE5CA
:102C1000980F933070F4853A29F0863A31F083E8C2
:102C200090E005C081E890E002C082E890E00C945A
:102C30006A1498E5980F973108F08EC0883A09F425
:102C400045C0893A09F445C08A3A09F445C08B3A2F
:102C500009F445C08C3A09F445C08B3B09F445C0E2
:102C60008C3B09F445C08D3A09F445C0803B09F41A
:102C700045C08E3A09F445C08F3A09F445C0813BFE
:102C800009F445C0823B09F445C0833B09F445C0C3
:102C9000843B09F445C0853B09F445C0863B09F4F3
:102CA00045C0873B09F445C0883B09F445C0893BD2
:102CB00009F445C08D3B09F445C08E3B09F445C07D
:102CC0008A3B09F445C080E090E044C082EE90E089
:102CD00041C089EE90E03EC08AEE90E03BC085EBBB
:102CE00090E038C086EB90E035C083EB90E032C0D6
:102CF00084EB90E02FC087EB90E02CC08CEC90E050
:102D000029C08DEC90E026C083E891E023C08AE8DA
:102D100091E020C082E991E01DC084E991E01AC0F1
:102D200081E292E017C083E292E014C084E292E074
:102D300011C085E292E00EC086E292E00BC087E20D
:102D400092E008C08FE690E005C080E790E002C006
:102D50008AE292E00C948014803F20F00E942A24A2
:102D60000C9417250895882309F464C0823879F4F7
:102D70000E94451481FF5EC069E38091100190912B
:102D800011010E9427210E940B2069E310C08338A3
:102D9000B1F40E94451480FF4DC063E5809110019D
:102DA000909111010E9427210E940B2063E58091E0
:102DB0001001909111010E9429210C940B2084385C
:102DC00079F40E94451482FF35C067E480911001B8
:102DD000909111010E9427210E940B2067E4E7CF08
:102DE0009CEF980F913A10F4682FE1CF90E2980F82
:102DF000983050F4877091E001C0990F8A95EAF7F6
:102E0000892F0E94C61FD9CF9BE5980F933020F4DD
:102E100080E090E00C946A1498E5980F973120F4C4
:102E200080E090E00C948014803F20F00E94922477
:102E30000C9417250895CF93C82F0E949515C93378
:102E400049F42FEF83EC99E0215080409040E1F766
:102E500000C000008C2FCF910C94B316882321F072
:102E60000E94C01F0C940B200895882321F00E941B
:102E7000C61F0C940B2008958F929F92AF92BF9221
:102E8000DF92EF92FF920F931F93CF93DF937C011A
:102E9000062FC72FFC01158112951F70D281D11109
:102EA0000E94DD1F0E94B61F882379F0DD2369F0A0
:102EB00080E2800F883048F082E00E9455200E9416
:102EC000B61F91E0D82ED92601C0D12CBC2EB294C9
:102ED0008FE0B8228B2D90E0FC01E358FF4F0C945B
:102EE000092D8C2F807FCF70882311F0C295C07F71
:102EF000DD2399F0CC2309F4B9C180E2800F88303A
:102F000010F0011104C08C2F0E94C01F03C08C2F31
:102F10000E94D01F0E940B20A9C1802F0E94B316CF
:102F2000CC2309F4C8C180E2800F883010F0011171
:102F300004C08C2F0E94C61F03C08C2F0E94D61F76
:102F40000E940B20B8C18C2F807FCF70803211F08F
:102F5000C295C07F002319F00130C9F022C0DD23E3
:102F600071F0112341F0113031F40E94F01F8C2BCD
:102F70000E94F81FA0C10E94F01F8C2B30C11123AA
:102F800019F0113009F497C10E94012018C0DD2307
:102F900021F0163008F08FC10EC0153008F08BC13B
:102FA0000EC0DD2351F0112331F0F701858180FF40
:102FB0005DC18F7085838C2F12C1111168C18C2F58
:102FC00014C18C2F86958695837019F0813061F03D
:102FD00072C1DD2321F0802F9C2F937002C080E00E
:102FE00090E00E946A1474C1DD2321F0802F9C2F91
:102FF000937002C080E090E00E94801469C1DD23DC
:10300000F9F0053F51F0063F71F0043FA9F48091BB
:103010005A0290915B0281600BC080915A0290919C
:103020005B02826005C080915A0290915B028460CD
:1030300090935B0280935A02802F0E942A241EC024
:10304000053F51F0063F71F0043FA9F480915A0208
:1030500090915B028E7F0BC080915A0290915B022F
:103060008D7F05C080915A0290915B028B7F909377
:103070005B0280935A02802F0E9492240E9417259F
:1030800027C18C2F837009F047C0D1111DC1202F9B
:10309000229526952770220F220F602F6F70862FA2
:1030A00090E0A0E0B0E04C015D01022E04C0880C6D
:1030B000991CAA1CBB1C0A94D2F704FF10C08FE015
:1030C00090E0A0E0B0E004C0880F991FAA1FBB1FCA
:1030D0002A95D2F780959095A095B09503C080E091
:1030E00090E0DC01C695C695C370BC01CD0168298E
:1030F00079298A299B29C23049F058F4C13019F046
:103100000E94FB1DE1C00E94E91DDEC00E940D1E51
:10311000DBC00E94E71DD8C0DD2319F08C2F817021
:1031200001C08695882309F4CFC0202F22952695CB
:103130002770220F220F602F6F70862F90E0A0E083
:10314000B0E04C015D01022E04C0880C991CAA1C41
:10315000BB1C0A94D2F704FF10C08FE090E0A0E0FF
:10316000B0E004C0880F991FAA1FBB1F2A95D2F791
:1031700080959095A095B09503C080E090E0DC012B
:10318000C695C695C370BC01CD01682979298A29E5
:103190009B29C23049F058F4C13019F00E94C01E7A
:1031A00093C00E94AE1E90C00E94D21E8DC00E948D
:1031B000211E8AC0802F90E0FC01E05EF109E5311C
:1031C000F10508F04FC0E357FF4F0C94092D0F7025
:1031D0008C2F8F71DD2331F00E94471E802F0E94BB
:1031E0002E1769C00E94681E802F0E94351763C089
:1031F000DD2341F0153008F05EC08C2F8F710E94E6
:103200008D1E59C0163008F056C0F7CFDD2339F0B7
:103210008C2F8F710E94471E4EC0DD23C9F38C2F67
:103220008F710E94681E47C0DD2329F08C2F8F719B
:103230000E94321E40C00E942D1E3DC0DD2349F079
:10324000CF718C2F0E94471E63E08C2F0E9440207C
:1032500032C081E00E945520123068F182E00E9465
:10326000552029C0DD2331F0112391F2802F0E94D7
:10327000951521C0112399F2093349F4FFEF23EC8E
:1032800089E0F15020408040E1F700C00000802F2D
:103290000E94B31610C04C2F4F70602FC7010E94C0
:1032A000F5090E94581D14C04C2F4F70602FC701A4
:1032B0000E94E7050DC098E0B91631F0B91640F04C
:1032C00086EF8B0D823020F40E9445140E94D807AF
:1032D000DD20E1F00E94B21F80FD18C0F7011282CC
:1032E0000E94AC1F0E94471EC7010E9492190E94B3
:1032F000AC1FDF91CF911F910F91FF90EF90DF9066
:10330000BF90AF909F908F900C94681EDF91CF91EB
:103310001F910F91FF90EF90DF90BF90AF909F9023
:103320008F9008950F931F93CF93DF93EC019881B3
:1033300089812B813C81232B31F08F3F31F481E057
:103340009F3F19F403C081E001C080E080FD13C0FD
:10335000CE010E94EA07882371F0688179818A8111
:103360000E94891F8C010E94E41E0E94D51DB80195
:10337000CE010E943C17DF91CF911F910F910895CC
:103380000E94DD1F0E94ED1F0E940B200E94BD25A0
:103390000E94172580E090E00E946A1480E090E08F
:1033A0000C94801480911001909111010E942B21A6
:1033B0000C94C0190E94CD1F0C94D219E92FE295EC
:1033C000EF704E2F50E0FA013297EE30F105B0F475
:1033D000EE55FF4F0C94092D803F91F018F4803E7C
:1033E00068F40EC0843F51F40BC0803E48F0813F2A
:1033F00029F406C093FB882780F9089580E008959A
:1034000081E008950E947E1F0E94DE190895CF93E7
:10341000DF9300D000D01F92CDB7DEB70F900F9092
:103420000F900F900F90DF91CF910895CF93DF937E
:1034300000D000D000D0CDB7DEB726960FB6F894F6
:10344000DEBF0FBECDBFDF91CF9108951F93CF9305
:10345000DF93C0918D0116E080918E01C81799F01D
:10346000D0E01C9FF0011D9FF00D1124E157FE4F8D
:103470004081518162817381848195810E94161AF5
:103480002196C770E9CFDF91CF911F9108954091A8
:10349000BF015091C0016091C1017091C201809142
:1034A000C3019091C4010C94161ACF938091C4016A
:1034B00082958F7009F05FC08091C101882309F463
:1034C0005AC080918D01B0918E017091BF01A09181
:1034D000C0014091C2015091C30191E07F3F09F0CA
:1034E00090E0692FC6E08B1709F445C041155105DE
:1034F00021F0AF3F21F020E003C021E001C0262FE2
:1035000090E020FD35C0C89FF001C99FF00D112447
:10351000E157FE4F21812A132BC02081271328C099
:103520002281211125C0238134812417350710F40D
:1035300021503109241B350B283C3105C8F420915A
:10354000C4012F7020612093C40126E0289FF00160
:10355000299FF00D1124EC56FE4F80818F70806101
:1035600080838FEB91E00E949219CF910C94261AE0
:1035700001968770B8CFCF910895AF92BF92CF9246
:10358000DF92EF92FF920F931F93CF93DF93CDB70C
:10359000DEB761970FB6F894DEBF0FBECDBF8C01CA
:1035A00085E0F801DE011D9601900D928A95E1F704
:1035B000D8014C9111965C9111971296EC90309134
:1035C000BF016091C0018091C2019091C301009739
:1035D00031F06F3F31F421E03F3F19F403C021E0A7
:1035E00001C020E0B22FB170BB2E20FD60C1F801F8
:1035F000C380D480A090C101AA2009F4EEC020911C
:10360000C401C816D90628F0D601A81BB90BCD01F4
:1036100004C0809590958C0D9D1DFF24F394883CEB
:10362000910580F0F12C207F09F09CC07C2DD98A77
:10363000C88A6E2D89890E94071A8FEB91E00E943B
:1036400092192DC1822F807F09F054C0561314C0E7
:10365000431312C0FE2CE1100FC02F702061209385
:10366000C4010E94471A8FEB91E00E949219809149
:10367000C401F80185835CC1CD2831F05F3F31F48E
:1036800081E04F3F19F403C081E001C080E080FD7C
:1036900003C081E08E2502C080E090E0F82FF17039
:1036A000FF2E80FF1CC080918D0120918E0136E09D
:1036B000821709F41AC190E0389FF001399FF00D8C
:1036C0001124E157FE4F6181561306C060814613F5
:1036D00003C06281E61203C001968770E9CFFE2C19
:1036E000EE2009F425C18091C40181608093C4015A
:1036F000F12C1EC1561309C0431307C0E11005C0C9
:103700008091C401F8018583A4C04D875E878D85B3
:103710009E850E94021A882379F1EE2069F120919A
:10372000C401822F82958F7090E0029774F080918F
:10373000BF019091C00198878F831986DB86CA8666
:103740002C87CE0107960E94921986E0F801AFEB14
:10375000B1E001900D928A95E1F70E94551A0E94FE
:10376000471A0DC0561771F04D875E878D859E856F
:103770000E94021A81111AC0C8010E949219FF24E6
:10378000F394D6C04313F0CFE110EECF8091C40183
:10379000F8018583C8010E94921986E0EFEBF1E001
:1037A000DF011D928A95E9F7FA2CC2C0EE2021F3C1
:1037B0002091C401822F82958F7090E002972CF2A5
:1037C0008091BF019091C0019A8389831B82DD8221
:1037D000CC822E83CE010196B6CFC816D90628F02A
:1037E000F601E81BF90BCF0104C0809590958C0D74
:1037F0009D1D883C910548F0F12C7C2DD98AC88A02
:103800006E2D89890E94071A4AC0FE2CEE2009F409
:10381000B3CF561333C0431331C02091C40120FDF0
:1038200024C0822F82958F70482F50E0411551059A
:10383000E1F0D80115962C9315974F30510549F0BA
:103840008F5F982F9295907F822F8F70892B15967E
:103850008C93C8010E94921986E0F801AFEBB1E0A9
:1038600001900D928A95E1F73DC086E0F801AFEB3B
:10387000B1E001900D928A95E1F75AC04D875E87BD
:103880008D859E850E94021A81115FCF8091C401AF
:1038900081608093C401C8010E94921949C0EFEB76
:1038A000F1E086E0DF011D928A95E9F71BC0EE206A
:1038B00009F462CF4D875E878D859E850E94021A2E
:1038C000F82E882309F458CF86E0F801AFEBB1E079
:1038D00001900D928A95E1F78FEB91E00E948F1590
:1038E0000E94551A0E94471A23C04D875E878D8516
:1038F0009E850E947E1F292F22952F70223028F44A
:103900009F7039F0811105C00BC0243028F49F70DE
:1039100049F4805E883020F0C8010E949219BF2CC3
:10392000FB2C06C0D80115969C91907F91F7F8CF9B
:103930008F2D61960FB6F894DEBF0FBECDBFDF911D
:10394000CF911F910F91FF90EF90DF90CF90BF909C
:10395000AF9008951F93CF93DF93CDB7DEB72C9729
:103960000FB6F894DEBF0FBECDBF4F83588769876F
:103970007A878B879C87CE0107960E94BD1A882381
:10398000D1F09F8188852A853B85232B31F08F3F9D
:1039900031F481E09F3F19F403C081E001C080E071
:1039A00080FD47C04F81588569857A858B859C85C8
:1039B0000E94161A3EC086E0FE013796DE0111967F
:1039C00001900D928A95E1F7FF81E8856A857B85F4
:1039D0006115710531F0EF3F31F481E0FF3F19F4DB
:1039E00003C081E001C080E080FD23C020918E01F2
:1039F00030E0C90101968770992740918D0150E010
:103A000084179507F1F1F983EA837D836C8396E04F
:103A1000929FD001939FB00D1124A157BE4FFE017C
:103A2000319601900D929A95E1F780938E010E9454
:103A3000261A16E080918D0190918E01891771F1FF
:103A4000189FC001112481579E4F0E94BD1A8823E0
:103A500029F1E0918D011E9FF0011124E157FE4FE5
:103A60004081518162817381848195810E94161AFF
:103A700080918D0190E001968770992780938D0148
:103A8000D9CF0E94DA1910928E0110928D01EFEBBE
:103A9000F1E086E0DF011D928A95E9F72C960FB6DA
:103AA000F894DEBF0FBECDBFDF91CF911F91089577
:103AB000EF92FF920F931F93CF93DF938C01892B8B
:103AC00009F46CC0F12CEE24E394E8012196F8018E
:103AD0008491843740F4843008F051C0813081F003
:103AE000823019F15BC0853709F444C0A8F19CE726
:103AF000980F903708F052C08F770E94B31641C0DC
:103B00000E5F1F4FFE01849190E2980F983050F4A1
:103B10008770FE2D01C0FF0F8A95EAF78F2F0E9454
:103B2000E01F14C00E9495152DC00E5F1F4FFE01AF
:103B3000849190E2980F983060F48770FE2D01C058
:103B4000FF0F8A95EAF78F2F0E94E61F0E940B2035
:103B500019C00E94B31616C00E5F1F4FFE01C4911C
:103B6000CC2381F08FE99FE00197F1F700C00000BE
:103B7000C150F6CF0E5F1F4FFE01F49003C00E94AC
:103B800095158E018F2D882309F49FCFEFE9FFE073
:103B90003197F1F700C000008150F5CFDF91CF9150
:103BA0001F910F91FF90EF900895089508950C9440
:103BB000D61D0C94D71D0E94D91D6093F1017093FE
:103BC000F2018093F3019093F4010C94C0190C94CA
:103BD000DB1D0F931F930091F1011091F2012091D1
:103BE000F3013091F401602B712B822B932B1F91E9
:103BF0000F910C94DB1D0F931F930091F101109115
:103C0000F2012091F3013091F401602371238223AA
:103C100093231F910F910C94DB1D0F931F93009121
:103C2000F1011091F2012091F3013091F40160272C
:103C30007127822793271F910F910C94DB1D0C9401
:103C4000D61D0E941F1E6093ED017093EE018093BC
:103C5000EF019093F0010C94C01960E070E0CB018B
:103C60000C94211E0F931F9341E050E060E070E040
:103C70008A019B0104C0000F111F221F331F8A9568
:103C8000D2F7C901B8011F910F910C94211E0F9317
:103C90001F9341E050E060E070E004C0440F551F06
:103CA000661F771F8A95D2F78091ED019091EE0102
:103CB000A091EF01B091F0018A019B01082B192B13
:103CC0002A2B3B2BC901B8011F910F910C94211E87
:103CD0000F931F9341E050E060E070E004C0440F98
:103CE000551F661F771F8A95D2F7409550956095AE
:103CF00070958091ED019091EE01A091EF01B0914E
:103D0000F0018A019B01082319232A233B23C901BF
:103D1000B8011F910F910C94211E0F931F9341E046
:103D200050E060E070E004C0440F551F661F771F2D
:103D30008A95D2F78091ED019091EE01A091EF016B
:103D4000B091F0018A019B01082719272A273B27F8
:103D5000C901B8011F910F910C94211E0F931F935D
:103D60000091ED011091EE012091EF013091F001F1
:103D7000602B712B822B932B1F910F910C94211E82
:103D80000F931F930091ED011091EE012091EF012F
:103D90003091F00160237123822393231F910F91AF
:103DA0000C94211E0F931F930091ED011091EE01D1
:103DB0002091EF013091F00160277127822793272E
:103DC0001F910F910C94211E089528E0929F800D61
:103DD0001124E82FE695E695E695877051E001C03D
:103DE000550F8A95EAF785E0E89FF0011124EB531F
:103DF000FE4F20E030E070E04081CB01022E02C097
:103E0000969587950A94E2F781708195842785239A
:103E1000842781932F5F3F4F2530310569F708953F
:103E200028E0929F800D1124682F6695669566950F
:103E3000982F977085E0689FB001112440E050E012
:103E400080E0FB01E40FF51FEB53FE4F208130E0D3
:103E5000092E02C0369527950A94E2F72170332780
:103E6000042E01C0220F0A94EAF7822B4F5F5F4FA6
:103E70004530510531F70895BF92CF92DF92EF920E
:103E8000FF920F931F93CF93DF938C01C090ED01AE
:103E9000D090EE01E090EF01F090F0018091F101FF
:103EA0009091F201A091F301B091F401C82AD92AAE
:103EB000EA2AFB2ACFE1D0E0D701C6010C2E04C0CC
:103EC000B695A795979587950A94D2F780FD04C07B
:103ED000219790F7B12C07C0BC2EB8018C2F0E94FF
:103EE000150A0197A9F38B2DDF91CF911F910F91A7
:103EF000FF90EF90DF90CF90BF900895CF93DF9326
:103F0000EC010E943C1FBE010E94150ADF91CF9177
:103F100008951F93CF93DF93EB0190918C01992328
:103F200021F0CB010E947E1F13C0882349F0CB01F2
:103F30000E943C1F182F682FCE010E94E51E04C06E
:103F4000CB010E94101F182FBE01812F0E94150A5D
:103F5000DF91CF911F9108958091F5018595859509
:103F6000859508958091F501877008959091F501E8
:103F7000977081E009F480E008958091010208952E
:103F800090910102892B8093010208958095909170
:103F9000010289238093010208951092010208957D
:103FA00090910002892B8093000208958095909152
:103FB0000002892380930002089510920002089560
:103FC0009091FF01892B8093FF0108958095909136
:103FD000FF0189238093FF0108951092FF01089546
:103FE0008091F601089508950C94F31F0C94F41F2A
:103FF0009091F601981721F08093F6010C94F61F2A
:1040000008958091F601882329F01092F60180E04E
:104010000C94F61F0895E0911001F0911101809128
:1040200001028083E0911001F09111019081809153
:104030000002892B8083E0911001F09111019081A1
:104040008091FF01892B80838091F601882381F084
:10405000E0911001F09111019081892B8083809172
:104060001001909111010E94F42081110E94012001
:1040700080911001909111010C9451140C94F31F34
:1040800098E0899F90011124262B2093F5010E942E
:10409000471E8091F5018595859585950C943E2068
:1040A0001092F50180E00C943E202091F50180955E
:1040B00082238093F501982F977079F430E0482F90
:1040C000082E000C550B2417350739F0859585957A
:1040D00085950E94681E0C945020089580E090E021
:1040E0000E942A2D21E08D3E9E4F09F020E0822F74
:1040F000089582E090E00C941C2D682F82E090E0FF
:104100000C94302D83E090E00C941C2D682F83E0FC
:1041100090E00C94302D84E090E00C941C2D682FDE
:1041200084E090E00C94302DAB01BC018FE090E076
:104130000C94422DAB01BC0183E190E00C94422D24
:1041400060E070E0CB010C949A2060E070E0CB015D
:104150000E9494200C94A0206DEE7EEF80E090E011
:104160000E944E2D60E082E090E00E94302D60E0E1
:1041700083E090E00E94302D1092F1011092F20144
:104180001092F3011092F40160E084E090E00E944C
:10419000302D60E085E090E00E94302D60E086E008
:1041A00090E00E94302D6FEF87E090E00E94302D6C
:1041B00040E050E0BA0188E090E00E94422D60E0CB
:1041C0008DE090E00E94302D40E050E0BA0188E19F
:1041D00090E00E94422D60E087E190E00E94302D47
:1041E0000C94A5200C94AC20FC01329697E080E062
:1041F000915029F021912223D9F38F5FF9CF0895AF
:104200009C01FC0132969FEF80E04191461789F0B6
:104210009F3F19F4411101C0982F8F5F8630A9F795
:104220009F3F39F0F901E90FF11D97FDFA9562837F
:10423000089508959C012A5F3F4FFC014281461377
:1042400001C01282019682179307B9F708950C9462
:1042500000210C941A21029626E0FC0111922A9565
:10426000E9F7089508950C9432210C943221CF93EC
:104270000E9435210E94CB0C0E943321C0E08C2F7C
:104280000E94740C811104C0CF5FC830C1F701C017
:1042900081E0CF9108950C9432210C944B210E941F
:1042A0004D2180916602843049F11092030220E48E
:1042B00088E190E00FB6F894A895809360000FBE57
:1042C0002093600080E00E94D8070E944D2183B7B0
:1042D000817F846083BF83B7816083BF7894889532
:1042E00083B78E7F83BF0FB6F894A8958091600046
:1042F000886180936000109260000FBE08950C9456
:1043000032210E94DA190E9445140E94D8070C94A9
:104310007F211F920F920FB60F9211248F939F93BC
:10432000AF93BF9380910302811113C080915C020F
:1043300090915D02A0915E02B0915F024196A11D35
:10434000B11D80935C0290935D02A0935E02B093D6
:104350005F02BF91AF919F918F910F900FBE0F9011
:104360001F90189582E084BD93E095BD9AEF97BDAC
:1043700080936E0008952FB7F89480915C0290911D
:104380005D02A0915E02B0915F022FBF0895CF92AF
:10439000DF92EF92FF920F931F932FB7F894409103
:1043A0005C0250915D0260915E0270915F022FBFCE
:1043B0006A017B01EE24FF248C0120E030E0C0166E
:1043C000D106E206F30610F4415051099A01281B68
:1043D000390BC9011F910F91FF90EF90DF90CF90A3
:1043E000089578941F920F920FB60F9211248F9315
:1043F0009F93AF93BF9380915C0290915D02A091D7
:104400005E02B0915F020196A11DB11D80935C0216
:1044100090935D02A0935E02B0935F02BF91AF9153
:104420009F918F910F900FBE0F901F90189581E074
:104430008093E00080E28093D8001092C9008FE161
:104440009EE40197F1F700C0000087E090EBDC01EB
:1044500080936F0290937002A0937102B0937202E6
:104460009CE088E10FB6F894A895809360000FBE99
:1044700090936000FFCFCF92DF92EF92FF920F9365
:104480001F93CF93C0E0E82EF12C8C2F0E94740C68
:1044900000E010E0C82ED12CC601002E02C0959578
:1044A00087950A94E2F780FD06C00F5F1F4F083022
:1044B000110591F70AC0602F7C2F80E00E94F80957
:1044C000E816F90691F781E004C0CF5FC830E9F63D
:1044D00080E0CF911F910F91FF90EF90DF90CF90F0
:1044E0000895CF93C82F8CE20E943B22882321F0AD
:1044F0008C2FCF910C943B2280E0CF910895CF93E5
:104500000E946E20811102C00E94F220C5E6C150B7
:1045100049F00E94CB0C8FE39CE90197F1F700C0B2
:104520000000F5CF89E20E94712281110FC18AE259
:104530000E94712281110E94F22085E00E94712266
:1045400081110E9417220E9479208093020287E045
:104550000E9471228823A9F18BE10E947122882395
:1045600051F08091020281FB222720F991E09227ED
:1045700090FB81F90EC08EE00E947122882361F0C9
:104580008091020282FB222720F991E0922790FB82
:1045900082F98093020215C080E10E9471229091FD
:1045A0000202882341F093FB222720F981E0822731
:1045B00080FB93F904C0892F809580FB90F990933C
:1045C0000202809102020E947D200E948B2090E0D6
:1045D000909361028093600280EE0E947122882392
:1045E00041F080916002982F909590FB80F9809324
:1045F000600289E30E947122882359F08091600251
:1046000081FB222720F991E0922790FB81F980938A
:10461000600282EE0E947122882359F0809160022C
:1046200082FB222720F991E0922790FB82F9809368
:10463000600286EE0E947122882359F08091600208
:1046400083FB222720F991E0922790FB83F9809346
:10465000600283EE0E947122882359F080916002EB
:1046600084FB222720F991E0922790FB84F9809324
:10467000600285E30E947122882359F080916002D4
:1046800085FB222720F991E0922790FB85F9809302
:10469000600281E30E947122882359F080916002B8
:1046A00086FB222720F991E0922790FB86F98093E0
:1046B000600281E10E947122882359F0809160029A
:1046C00087FB222720F991E0922790FB87F98093BE
:1046D0006002809160020E948F2087E20E94712216
:1046E000C82F8EE10E9471228111C2608FE10E9469
:1046F00071228111C46080E20E9471228111C86020
:1047000081E20E9471228111C06182E20E947122C5
:104710008111C06283E20E9471228111C06484E22F
:104720000E947122882311F0C06802C0CC2329F0B6
:104730008C2F0E9486206C2F03C00E948220682F3D
:1047400070E080E090E0CF910C94E71DCF91089548
:104750008091070280FF0BC06091150185E0689F82
:10476000B001112475956795759567952BC081FFEC
:1047700009C06091150185E0689FB001112475950D
:10478000679520C082FF07C06091150185E0689F92
:10479000B001112417C0909106029923D1F06091C5
:1047A0001401961788F72091150185E0289F900144
:1047B0001124929FA001939F500D112470E0CA0113
:1047C0000E94F52C6038710540F46115710519F4EB
:1047D00006C065E070E0862F08958FE7089581E0B8
:1047E00008958091070280FF08C06091130170E076
:1047F000759567957595679521C081FF06C0609195
:10480000130170E07595679519C082FF04C060912F
:10481000130170E010C090910602992399F0609105
:1048200012019617A0F780911301899FC0011124EE
:1048300070E00E94F52C6038710540F46115710537
:1048400019F406C061E070E0862F08958FE708959F
:1048500081E00895803F21F40E94A823819504C03F
:10486000813F29F40E94A82380930B020895823F80
:1048700021F40E94A823819504C0833F29F40E945B
:10488000A82380930A020895893F19F40E94F12316
:1048900005C08A3F31F40E94F123819580930C0278
:1048A00008958B3F21F40E94F123819504C08C3F31
:1048B00029F40E94F12380930D020895843F21F48E
:1048C00080910902816017C0853F21F4809109021F
:1048D000826011C0863F21F48091090284600BC080
:1048E000873F21F480910902886005C0883F31F438
:1048F0008091090280618093090208958D3F21F41F
:104900008091070281600BC08E3F21F480910702E5
:10491000826005C08F3F29F48091070284608093F4
:1049200007020895803F39F480910B0287FF6CC025
:1049300010920B0269C0813F29F480910B02181676
:10494000BCF362C090910A02823F29F497FF5CC0D9
:1049500010920A0259C0833F19F41916CCF354C0BF
:10496000893F41F480910C0218160CF04DC0109252
:104970000C024AC08A3F29F480910C0287FF44C090
:10498000F6CF8B3F39F480910D0287FF3DC0109226
:104990000D023AC08C3F29F480910D021816BCF329
:1049A00033C0843F21F4809109028E7F17C0853F78
:1049B00021F4809109028D7F11C0863F21F48091FE
:1049C00009028B7F0BC0873F21F480910902877F0A
:1049D00005C0883F31F4809109028F7E80930902DF
:1049E00013C08D3F21F4809107028E7F0BC08E3F54
:1049F00021F4809107028D7F05C08F3F29F48091BB
:104A000007028B7F8093070280910A0281110EC0FA
:104A100080910B0281110AC080910C02811106C0A5
:104A200080910D02811102C010920602089588E063
:104A300092E00E945C140E94BB2190930502809337
:104A4000040208951F93CF93DF9380910402909105
:104A500005020E94C721AC0190910602992321F022
:104A60002091160130E006C0209117018AE0289FAE
:104A7000900111244217530708F47BC080910A0269
:104A8000C0910B02D0910C0210910D02811107C050
:104A9000C1116BC0D11169C0111167C06AC09F3FBD
:104AA00019F09F5F90930602181624F40E94A82321
:104AB00080930A0280910A0287FF05C00E94A82302
:104AC000819580930A021C1624F40E94A8238093E7
:104AD0000B0280910B0287FF05C00E94A8238195DD
:104AE00080930B0230910A023323E1F020910B02F4
:104AF0002223C1F045EB3403C0011124992319F09E
:104B000090930A0203C081E080930A0235EB2303ED
:104B1000C0011124992319F090930B0203C081E086
:104B200080930B021D1624F40E94F12380930C0243
:104B300080910C0287FF05C00E94F123819580932C
:104B40000C02111624F40E94F12380930D0280912F
:104B50000D0287FF05C00E94F123819580930D020D
:104B6000DF91CF911F910C9417259F3F09F099CFAA
:104B7000AACFDF91CF911F910895E8E0F2E086E09F
:104B8000DF011D928A95E9F7109206021092070242
:104B900008958091160208950F931F93CF93DF938A
:104BA00000D01F92CDB7DEB78C010E94262882303C
:104BB00011F0843021F584E089831B830A8382E02D
:104BC0008093E9008FEF9091E800815095FD06C039
:104BD00095ED9A95F1F700008111F5CF8091E800ED
:104BE00085FF0DC040E050E063E070E0CE0101962B
:104BF0000E9443288091E8008E778093E8000F9010
:104C00000F900F90DF91CF911F910F910895CF9347
:104C1000DF9300D01F92CDB7DEB72091660224301B
:104C200031F523E02983805891099B838A8382E0B0
:104C30008093E9008FEF9091E800815095FD06C0C8
:104C400095ED9A95F1F700008111F5CF8091E8007C
:104C500085FF0DC040E050E063E070E0CE010196BA
:104C60000E9443288091E8008E778093E8000F909F
:104C70000F900F90DF91CF910895CF93DF93EC01C8
:104C80000E942628823011F08430F9F482E080936B
:104C9000E9008FEF9091E800815095FD06C095EDF9
:104CA0009A95F1F700008111F5CF8091E80085FF1A
:104CB0000CC040E050E066E070E0CE010E94432866
:104CC0008091E8008E778093E800DF91CF9108957E
:104CD000CF93DF93EC010E942628823011F08430BC
:104CE00039F581E08093E9008FEF9091E8008150E1
:104CF00095FD06C095ED9A95F1F700008111F5CF6D
:104D00008091E80085FF14C040E050E068E070E06A
:104D1000CE010E9443288091E8008E778093E800BE
:104D200088E0FE01AEE0B2E001900D928A95E1F7D5
:104D3000DF91CF91089580916502811109C00E9491
:104D4000D4290E94312A8091E20084608093E2009D
:104D50000895109265020895089508950C94812194
:104D600042E061EC81E00E944D2942E261EC82E088
:104D70000C944D2980916802833009F460C030F4AE
:104D8000813071F0823009F499C008958A3009F4B5
:104D900085C08B3009F46BC0893009F0A7C020C0F2
:104DA00080916702813A09F0A1C08091E800877F75
:104DB0008093E80080916B0290916C02892B21F422
:104DC00068E08EE092E003C060E080E090E070E098
:104DD0000E948E288091E8008B778093E8000895E8
:104DE00080916702813209F081C080916B029091BD
:104DF0006C02029708F07AC08091E800877F809368
:104E0000E8008091E80082FD05C080916602811172
:104E1000F8CF6CC02091F3008091F20090E0922BCB
:104E2000029729F48091F1008B7F813021F48091E9
:104E3000F100809316028091E8008B7753C0809137
:104E40006702813A09F052C080916B0290916C0226
:104E5000892B09F04BC08091E800877F8093E800A0
:104E60008091E80080FFFCCF8091220136C08091C4
:104E700067028132D9F580916B0290916C02892B87
:104E8000A9F58091E800877F8093E8000E9482293D
:104E900080916902809322010C94DA198091670253
:104EA000813221F58091E800877F8093E8000E949D
:104EB000822980916A028093170208958091670287
:104EC000813AA1F48091E800877F8093E800809187
:104ED000E80080FFFCCF809117028093F100809161
:104EE000E8008E778093E8000C948229089584B7B7
:104EF000877F84BF0FB6F894A89580916000886181
:104F000080936000109260000FBE80E88093610083
:104F1000109261000E94A6140E94D4290E94312A96
:104F20008091E20084608093E20078940E94C62C15
:104F30000E94AE1488E191E00E94401480916602C4
:104F4000853069F40E944F21809164028823B1F377
:104F50000E943721882391F30E942D28EFCF0E94D1
:104F6000B8140E94BC12EACF0C94B627292F33271D
:104F700023303105C9F060F42130310581F0223051
:104F8000310509F04AC08BE390E029E23AE049C0DC
:104F90002132310511F12232310579F13EC082E131
:104FA00090E024E63AE03DC099278130910561F018
:104FB00040F08230910559F0039779F5EDEEF9E074
:104FC00008C0E5E2FAE005C0EDE0FAE002C0E3EF78
:104FD000F9E0849190E09F0124C06115710541F0D2
:104FE00061307105D1F489E090E024E53AE019C020
:104FF00089E090E02BE33AE014C06115710541F0BF
:105000006130710551F485E890E026E73AE009C087
:1050100080E490E02BEF3AE004C080E090E020E0F4
:1050200030E0FA013183208308950895CF93C82F8B
:105030000E941528C0931802CF91089580916602AE
:10504000843011F081E0089582E008958091180283
:10505000811102C00C941E28089580E189BD82E16F
:1050600089BD09B400FEFDCF8091D8008F7D80936B
:10507000D8008091E00082608093E0008091E000A1
:1050800081FDFCCF0895CF92DF92EF92FF920F93B4
:105090001F93CF93DF93EC018B017A010E94A1292A
:1050A000811133C0E114F10439F0F701808191815D
:1050B000081B190BC80FD91FC12CD12C01151105C4
:1050C00019F18091E80085FD16C08091E8008E7787
:1050D0008093E800E114F10449F0F70180819181A7
:1050E000C80ED91ED182C08285E00FC00E94A129BE
:1050F000882321F30AC089918093F100015011099E
:10510000FFEFCF1ADF0ADACF80E0DF91CF911F9156
:105110000F91FF90EF90DF90CF90089520916D0256
:1051200030916E022617370748F06115710539F482
:105130002091E8002E772093E80001C0B901FC011E
:1051400020E06115710579F1809166028823F1F103
:105150008530F1F18091E80083FD3CC08091E8004A
:1051600082FD2EC08091E80080FFEBCF2091F300FC
:105170008091F20090E0922B6115710551F088301A
:10518000910538F421912093F10061507109019645
:10519000F3CF21E0089709F020E08091E8008E77B6
:1051A0008093E800CECF2111CFCF0AC08091660254
:1051B000882361F0853061F08091E80083FD0AC0AA
:1051C0008091E80082FFF2CF80E0089582E00895A8
:1051D00083E0089581E0089520916D0230916E0280
:1051E0002617370748F06115710539F42091E8005A
:1051F0002E772093E80001C0B901FC0120E0611581
:10520000710591F180916602882309F440C08530D0
:1052100009F43FC08091E80083FD3DC08091E80023
:1052200082FD2FC08091E80080FFE9CF2091F3003C
:105230008091F20090E0922B6115710559F0883051
:10524000910540F424912093F10031966150710949
:105250000196F2CF21E0089709F020E08091E80064
:105260008E778093E800CBCF2111CCCF0AC08091FC
:105270006602882361F0853061F08091E80083FD4B
:105280000AC08091E80082FFF2CF80E0089582E0BA
:10529000089583E0089581E00895982F973068F588
:1052A0009093E900981739F07091EC002091ED008F
:1052B0005091F00003C0242F762F50E021FD02C052
:1052C0009F5FECCF3091EB003E7F3093EB0030914D
:1052D000ED003D7F3093ED003091EB003160309375
:1052E000EB007093EC002093ED005093F0002091C0
:1052F000EE0027FDE5CF80E008958F708093E900F0
:1053000081E008958091670287FF11C08091E800D5
:1053100082FD05C0809166028111F8CF11C0809195
:10532000E8008B770BC080916602882349F080915A
:10533000E80080FFF8CF8091E8008E778093E80046
:1053400008952091E4003091E50095E64091EC004D
:10535000842F817040FF23C08091E80080FD1DC034
:1053600080916602882399F0853099F08091EB0056
:1053700085FD11C04091E4005091E50024173507E8
:1053800029F3915011F09A01E1CF84E0089582E071
:10539000089583E0089581E0089580E008954091A4
:1053A000E80042FFDDCF08950E94422A0E944A2A67
:1053B000E0EEF0E0808181608083E8EDF0E08081C4
:1053C0008F77808319BCA7EDB0E08C918E7F8C9392
:1053D00080818F7E80831092650208950F931F93C2
:1053E000CF93DF930E94422A0E944A2AC8EDD0E060
:1053F00088818F77888388818068888388818F7D82
:10540000888319BC109266021092620210926402A4
:105410001092630200EE10E0F80180818B7F8083A0
:1054200088818160888342E060E080E00E944D29AD
:10543000E1EEF0E080818E7F8083E2EEF0E080811B
:1054400081608083808188608083F80180818E7F85
:105450008083888180618883DF91CF911F910F9134
:105460000895E8EDF0E080818F7E8083E7EDF0E045
:1054700080818160808384E082BF81E080936502C7
:105480000C94EE29E8EDF0E080818E7F808310920D
:10549000E20008951092DA001092E10008951F9240
:1054A0000F920FB60F9211242F933F934F935F9358
:1054B0006F937F938F939F93AF93BF93EF93FF93DC
:1054C0008091E10082FF0BC08091E20082FF07C063
:1054D0008091E1008B7F8093E1000E94C52C809138
:1054E000DA0080FF1FC08091D80080FF1BC0809130
:1054F000DA008E7F8093DA008091D90080FF0DC0A2
:1055000080E189BD82E189BD09B400FEFDCF81E063
:10551000809366020E949B2605C019BC1092660209
:105520000E94A9268091E10080FF19C08091E200CD
:1055300080FF15C08091E2008E7F8093E200809111
:10554000E20080618093E2008091D80080628093C5
:10555000D80019BC85E0809366020E94AD26809138
:10556000E10084FF30C08091E20084FF2CC080E124
:1055700089BD82E189BD09B400FEFDCF8091D800CC
:105580008F7D8093D8008091E1008F7E8093E10031
:105590008091E2008F7E8093E2008091E200816042
:1055A0008093E20080916202882311F084E007C0BA
:1055B0008091E30087FD02C081E001C083E0809319
:1055C00066020E94AE268091E10083FF29C080918F
:1055D000E20083FF25C08091E100877F8093E10096
:1055E00082E080936602109262028091E1008E7FD9
:1055F0008093E1008091E2008E7F8093E2008091B1
:10560000E20080618093E20042E060E080E00E947E
:105610004D298091F00088608093F0000E94AC26B4
:10562000FF91EF91BF91AF919F918F917F916F917A
:105630005F914F913F912F910F900FBE0F901F9050
:1056400018951F920F920FB60F9211242F933F932C
:105650004F935F936F937F938F939F93AF93BF937A
:10566000CF93DF93EF93FF93C091E900CF708091C8
:10567000EC00D82FD17080FDD0E81092E900809125
:10568000F000877F8093F00078940E94652B109241
:10569000E9008091F00088608093F000CD2BCF70FE
:1056A000C093E900FF91EF91DF91CF91BF91AF914E
:1056B0009F918F917F916F915F914F913F912F912A
:1056C0000F900FBE0F901F9018951F93CF93DF93ED
:1056D000CDB7DEB7AA970FB6F894DEBF0FBECDBF29
:1056E000E7E6F2E08091F100819322E0EF36F207E5
:1056F000C9F70E94BA268091E80083FF2EC18091ED
:10570000670290916802492F50E04A30510508F035
:1057100024C1FA01E055FF4F0C94092D803821F087
:10572000823809F01AC108C0809163029091640226
:10573000992389F082600FC080916B028F7087304F
:1057400008F00BC18093E9008091EB0085FB88276E
:1057500080F91092E9009091E800977F9093E8001B
:105760008093F1001092F100D1C0282F2D7F09F015
:10577000F4C0882319F0823061F0EFC08091690293
:10578000813009F0EAC0933009F080E08093640230
:105790002EC08091690281112AC080916B028F70A6
:1057A0002FEF280F263008F0D8C08093E900209111
:1057B000EB0020FF1CC0933021F48091EB0080624D
:1057C00014C09091EB0090619093EB0021E030E0E9
:1057D000A90102C0440F551F8A95E2F74093EA00E1
:1057E0001092EA008091EB0088608093EB001092A9
:1057F000E9008091E800877F8093E8000E94822979
:10580000ACC08111AAC0109169021F778091E3009A
:105810008078812B8093E3008091E800877F8093DC
:10582000E8000E9482298091E80080FFFCCF8091EF
:10583000E30080688093E300111102C082E001C0A0
:1058400083E08093660289C08058823008F085C06A
:105850008091690290916A028C3D53E0950779F539
:1058600083E08A838AE289834FB7F894DE01139636
:1058700020E03EE051E2E32FF0E050935700E49146
:1058800020FF03C0E295EF703F5FEF708E2F90E036
:10589000EA3010F0C79601C0C0968D939D932F5F9C
:1058A000243149F74FBF8091E800877F8093E8005B
:1058B0006AE270E0CE0101960E948E2816C06091C7
:1058C0006B0270916C02AE014F5F5F4F0E94B42774
:1058D000BC01892B09F441C09091E800977F909317
:1058E000E80089819A810E94EC288091E8008B77FA
:1058F0008093E80032C0803881F58091E800877F8E
:105900008093E800809162028093F1008091E8002A
:105910008E7772CF811121C08091690290916A02C5
:1059200099270297D4F48091E800877F8093E8005C
:1059300080916902809362020E94822980916202B2
:10594000811106C08091E30087FD02C081E001C0A3
:1059500084E0809366020E94B0268091E80083FF75
:105960000AC08091E800877F8093E8008091EB0077
:1059700080628093EB00AA960FB6F894DEBF0FBE4C
:10598000CDBFDF91CF911F9108950895CF9380915E
:1059900066028823A1F0C091E900CF709091EC00DD
:1059A000892F817090FD80E8C82B1092E9008091CA
:1059B000E80083FD0E94652BCF70C093E900CF9172
:1059C0000895AA1BBB1B51E107C0AA1FBB1FA61746
:1059D000B70710F0A61BB70B881F991F5A95A9F798
:1059E00080959095BC01CD01089597FB072E16F484
:1059F000009407D077FD09D00E94E12C07FC05D068
:105A00003EF4909581959F4F0895709561957F4FD5
:105A10000895EE0FFF1F0590F491E02D0994FC010D
:105A20004150504030F001900616D1F73197CF0128
:105A30000895882799270895F999FECF92BD81BDD1
:105A4000F89A992780B50895A6E1B0E044E050E0C7
:105A50000C94562DA8E1B0E042E050E00C94562D95
:105A6000262FF999FECF92BD81BDF89A019700B417
:105A7000021639F01FBA20BD0FB6F894FA9AF99AB7
:105A80000FBE08950396272F0E94312D0E94302DBE
:105A9000252F0E94312D242F0C94312D0196272F74
:105AA0000E94312D0C94302DDC01CB01FC01F999C1
:105AB000FECF06C0F2BDE1BDF89A319600B40D925A
:0C5AC00041505040B8F70895F894FFCF13
:105ACC00010214141401191A1B1C1D1E1F20212263
